{
    "contractName": "VRFCoordinatorV2Mock",
    "abi": [
        {
            "inputs": [
                {
                    "internalType": "uint96",
                    "name": "_baseFee",
                    "type": "uint96"
                },
                {
                    "internalType": "uint96",
                    "name": "_gasPriceLink",
                    "type": "uint96"
                }
            ],
            "stateMutability": "nonpayable",
            "type": "constructor"
        },
        {
            "inputs": [],
            "name": "InsufficientBalance",
            "type": "error"
        },
        {
            "inputs": [],
            "name": "InvalidConsumer",
            "type": "error"
        },
        {
            "inputs": [],
            "name": "InvalidSubscription",
            "type": "error"
        },
        {
            "inputs": [
                {
                    "internalType": "address",
                    "name": "owner",
                    "type": "address"
                }
            ],
            "name": "MustBeSubOwner",
            "type": "error"
        },
        {
            "inputs": [],
            "name": "TooManyConsumers",
            "type": "error"
        },
        {
            "anonymous": false,
            "inputs": [
                {
                    "indexed": true,
                    "internalType": "uint64",
                    "name": "subId",
                    "type": "uint64"
                },
                {
                    "indexed": false,
                    "internalType": "address",
                    "name": "consumer",
                    "type": "address"
                }
            ],
            "name": "ConsumerAdded",
            "type": "event"
        },
        {
            "anonymous": false,
            "inputs": [
                {
                    "indexed": true,
                    "internalType": "uint64",
                    "name": "subId",
                    "type": "uint64"
                },
                {
                    "indexed": false,
                    "internalType": "address",
                    "name": "consumer",
                    "type": "address"
                }
            ],
            "name": "ConsumerRemoved",
            "type": "event"
        },
        {
            "anonymous": false,
            "inputs": [
                {
                    "indexed": true,
                    "internalType": "uint256",
                    "name": "requestId",
                    "type": "uint256"
                },
                {
                    "indexed": false,
                    "internalType": "uint256",
                    "name": "outputSeed",
                    "type": "uint256"
                },
                {
                    "indexed": false,
                    "internalType": "uint96",
                    "name": "payment",
                    "type": "uint96"
                },
                {
                    "indexed": false,
                    "internalType": "bool",
                    "name": "success",
                    "type": "bool"
                }
            ],
            "name": "RandomWordsFulfilled",
            "type": "event"
        },
        {
            "anonymous": false,
            "inputs": [
                {
                    "indexed": true,
                    "internalType": "bytes32",
                    "name": "keyHash",
                    "type": "bytes32"
                },
                {
                    "indexed": false,
                    "internalType": "uint256",
                    "name": "requestId",
                    "type": "uint256"
                },
                {
                    "indexed": false,
                    "internalType": "uint256",
                    "name": "preSeed",
                    "type": "uint256"
                },
                {
                    "indexed": true,
                    "internalType": "uint64",
                    "name": "subId",
                    "type": "uint64"
                },
                {
                    "indexed": false,
                    "internalType": "uint16",
                    "name": "minimumRequestConfirmations",
                    "type": "uint16"
                },
                {
                    "indexed": false,
                    "internalType": "uint32",
                    "name": "callbackGasLimit",
                    "type": "uint32"
                },
                {
                    "indexed": false,
                    "internalType": "uint32",
                    "name": "numWords",
                    "type": "uint32"
                },
                {
                    "indexed": true,
                    "internalType": "address",
                    "name": "sender",
                    "type": "address"
                }
            ],
            "name": "RandomWordsRequested",
            "type": "event"
        },
        {
            "anonymous": false,
            "inputs": [
                {
                    "indexed": true,
                    "internalType": "uint64",
                    "name": "subId",
                    "type": "uint64"
                },
                {
                    "indexed": false,
                    "internalType": "address",
                    "name": "to",
                    "type": "address"
                },
                {
                    "indexed": false,
                    "internalType": "uint256",
                    "name": "amount",
                    "type": "uint256"
                }
            ],
            "name": "SubscriptionCanceled",
            "type": "event"
        },
        {
            "anonymous": false,
            "inputs": [
                {
                    "indexed": true,
                    "internalType": "uint64",
                    "name": "subId",
                    "type": "uint64"
                },
                {
                    "indexed": false,
                    "internalType": "address",
                    "name": "owner",
                    "type": "address"
                }
            ],
            "name": "SubscriptionCreated",
            "type": "event"
        },
        {
            "anonymous": false,
            "inputs": [
                {
                    "indexed": true,
                    "internalType": "uint64",
                    "name": "subId",
                    "type": "uint64"
                },
                {
                    "indexed": false,
                    "internalType": "uint256",
                    "name": "oldBalance",
                    "type": "uint256"
                },
                {
                    "indexed": false,
                    "internalType": "uint256",
                    "name": "newBalance",
                    "type": "uint256"
                }
            ],
            "name": "SubscriptionFunded",
            "type": "event"
        },
        {
            "inputs": [],
            "name": "BASE_FEE",
            "outputs": [
                {
                    "internalType": "uint96",
                    "name": "",
                    "type": "uint96"
                }
            ],
            "stateMutability": "view",
            "type": "function"
        },
        {
            "inputs": [],
            "name": "GAS_PRICE_LINK",
            "outputs": [
                {
                    "internalType": "uint96",
                    "name": "",
                    "type": "uint96"
                }
            ],
            "stateMutability": "view",
            "type": "function"
        },
        {
            "inputs": [],
            "name": "MAX_CONSUMERS",
            "outputs": [
                {
                    "internalType": "uint16",
                    "name": "",
                    "type": "uint16"
                }
            ],
            "stateMutability": "view",
            "type": "function"
        },
        {
            "inputs": [
                {
                    "internalType": "uint64",
                    "name": "_subId",
                    "type": "uint64"
                }
            ],
            "name": "acceptSubscriptionOwnerTransfer",
            "outputs": [],
            "stateMutability": "pure",
            "type": "function"
        },
        {
            "inputs": [
                {
                    "internalType": "uint64",
                    "name": "_subId",
                    "type": "uint64"
                },
                {
                    "internalType": "address",
                    "name": "_consumer",
                    "type": "address"
                }
            ],
            "name": "addConsumer",
            "outputs": [],
            "stateMutability": "nonpayable",
            "type": "function"
        },
        {
            "inputs": [
                {
                    "internalType": "uint64",
                    "name": "_subId",
                    "type": "uint64"
                },
                {
                    "internalType": "address",
                    "name": "_to",
                    "type": "address"
                }
            ],
            "name": "cancelSubscription",
            "outputs": [],
            "stateMutability": "nonpayable",
            "type": "function"
        },
        {
            "inputs": [
                {
                    "internalType": "uint64",
                    "name": "_subId",
                    "type": "uint64"
                },
                {
                    "internalType": "address",
                    "name": "_consumer",
                    "type": "address"
                }
            ],
            "name": "consumerIsAdded",
            "outputs": [
                {
                    "internalType": "bool",
                    "name": "",
                    "type": "bool"
                }
            ],
            "stateMutability": "view",
            "type": "function"
        },
        {
            "inputs": [],
            "name": "createSubscription",
            "outputs": [
                {
                    "internalType": "uint64",
                    "name": "_subId",
                    "type": "uint64"
                }
            ],
            "stateMutability": "nonpayable",
            "type": "function"
        },
        {
            "inputs": [
                {
                    "internalType": "uint256",
                    "name": "_requestId",
                    "type": "uint256"
                },
                {
                    "internalType": "address",
                    "name": "_consumer",
                    "type": "address"
                }
            ],
            "name": "fulfillRandomWords",
            "outputs": [],
            "stateMutability": "nonpayable",
            "type": "function"
        },
        {
            "inputs": [
                {
                    "internalType": "uint64",
                    "name": "_subId",
                    "type": "uint64"
                },
                {
                    "internalType": "uint96",
                    "name": "_amount",
                    "type": "uint96"
                }
            ],
            "name": "fundSubscription",
            "outputs": [],
            "stateMutability": "nonpayable",
            "type": "function"
        },
        {
            "inputs": [],
            "name": "getRequestConfig",
            "outputs": [
                {
                    "internalType": "uint16",
                    "name": "",
                    "type": "uint16"
                },
                {
                    "internalType": "uint32",
                    "name": "",
                    "type": "uint32"
                },
                {
                    "internalType": "bytes32[]",
                    "name": "",
                    "type": "bytes32[]"
                }
            ],
            "stateMutability": "pure",
            "type": "function"
        },
        {
            "inputs": [
                {
                    "internalType": "uint64",
                    "name": "_subId",
                    "type": "uint64"
                }
            ],
            "name": "getSubscription",
            "outputs": [
                {
                    "internalType": "uint96",
                    "name": "balance",
                    "type": "uint96"
                },
                {
                    "internalType": "uint64",
                    "name": "reqCount",
                    "type": "uint64"
                },
                {
                    "internalType": "address",
                    "name": "owner",
                    "type": "address"
                },
                {
                    "internalType": "address[]",
                    "name": "consumers",
                    "type": "address[]"
                }
            ],
            "stateMutability": "view",
            "type": "function"
        },
        {
            "inputs": [
                {
                    "internalType": "uint64",
                    "name": "_subId",
                    "type": "uint64"
                }
            ],
            "name": "pendingRequestExists",
            "outputs": [
                {
                    "internalType": "bool",
                    "name": "",
                    "type": "bool"
                }
            ],
            "stateMutability": "view",
            "type": "function"
        },
        {
            "inputs": [
                {
                    "internalType": "uint64",
                    "name": "_subId",
                    "type": "uint64"
                },
                {
                    "internalType": "address",
                    "name": "_consumer",
                    "type": "address"
                }
            ],
            "name": "removeConsumer",
            "outputs": [],
            "stateMutability": "nonpayable",
            "type": "function"
        },
        {
            "inputs": [
                {
                    "internalType": "bytes32",
                    "name": "_keyHash",
                    "type": "bytes32"
                },
                {
                    "internalType": "uint64",
                    "name": "_subId",
                    "type": "uint64"
                },
                {
                    "internalType": "uint16",
                    "name": "_minimumRequestConfirmations",
                    "type": "uint16"
                },
                {
                    "internalType": "uint32",
                    "name": "_callbackGasLimit",
                    "type": "uint32"
                },
                {
                    "internalType": "uint32",
                    "name": "_numWords",
                    "type": "uint32"
                }
            ],
            "name": "requestRandomWords",
            "outputs": [
                {
                    "internalType": "uint256",
                    "name": "",
                    "type": "uint256"
                }
            ],
            "stateMutability": "nonpayable",
            "type": "function"
        },
        {
            "inputs": [
                {
                    "internalType": "uint64",
                    "name": "_subId",
                    "type": "uint64"
                },
                {
                    "internalType": "address",
                    "name": "_newOwner",
                    "type": "address"
                }
            ],
            "name": "requestSubscriptionOwnerTransfer",
            "outputs": [],
            "stateMutability": "pure",
            "type": "function"
        }
    ],
    "bytecode": "60e0604052601960f21b60c05260018055606460025534801561002157600080fd5b506040516115733803806115738339810160408190526100409161007a565b6001600160a01b031960a092831b811660805290821b1690526100ad565b80516001600160601b038116811461007557600080fd5b919050565b6000806040838503121561008d57600080fd5b6100968361005e565b91506100a46020840161005e565b90509250929050565b60805160a01c60a05160a01c60c05160f01c6114796100fa600039600081816101a801526105120152600081816102490152610805015260008181610148015261085001526114796000f3fe608060405234801561001057600080fd5b50600436106100ff5760003560e01c80639f87fad711610097578063afc69b5311610066578063afc69b531461028e578063d7ae1d30146102a1578063e82ad7d4146102b4578063ed5eb06d146102d757600080fd5b80639f87fad714610211578063a21a23e414610224578063a410347f14610244578063a47c76961461026b57600080fd5b806364d51a2a116100d357806364d51a2a146101a35780637341c10c146101dd578063808974ff146101f0578063823597401461020357600080fd5b80620122911461010457806304c357cb1461012e5780633d18651e146101435780635d3b1d3014610182575b600080fd5b6040805160008152602081019182905261012591600391621e8480916111e1565b60405180910390f35b61014161013c366004611139565b6102ea565b005b61016a7f000000000000000000000000000000000000000000000000000000000000000081565b6040516001600160601b039091168152602001610125565b610195610190366004611084565b610329565b604051908152602001610125565b6101ca7f000000000000000000000000000000000000000000000000000000000000000081565b60405161ffff9091168152602001610125565b6101416101eb366004611139565b61047e565b6101416101fe3660046110eb565b6105e5565b61014161013c366004611117565b61014161021f366004611139565b610998565b61022c610bb0565b6040516001600160401b039091168152602001610125565b61016a7f000000000000000000000000000000000000000000000000000000000000000081565b61027e610279366004611117565b610c78565b604051610125949392919061128e565b61014161029c366004611163565b610d2c565b6101416102af366004611139565b610e28565b6102c76102c2366004611117565b610f29565b6040519015158152602001610125565b6102c76102e5366004611139565b610f66565b60405162461bcd60e51b815260206004820152600f60248201526e1b9bdd081a5b5c1b195b595b9d1959608a1b60448201526064015b60405180910390fd5b6001600160401b0384166000908152600360205260408120546001600160a01b031661036857604051630fb532db60e11b815260040160405180910390fd5b6001805460009182610379836113a9565b90915550600280549192506000919082610392836113a9565b9091555060408051606080820183526001600160401b038b811680845263ffffffff8b811660208087018281528d8416888a0181815260008e8152600485528b902099518a54935191518716600160601b0263ffffffff60601b1992909716600160401b026bffffffffffffffffffffffff19909416981697909717919091179590951692909217909555855189815290810187905261ffff8d16818701529283019390935260808201529151929350339290918b917f63373d1c4696214b898952999c9aaec57dac1ee2723cec59bea6888f489a97729160a0908290030190a4509695505050505050565b6001600160401b03821660009081526003602052604090205482906001600160a01b0316806104c057604051630fb532db60e11b815260040160405180910390fd5b336001600160a01b038216146104f457604051636c51fda960e11b81526001600160a01b0382166004820152602401610320565b6001600160401b03841660009081526005602052604090205461ffff7f0000000000000000000000000000000000000000000000000000000000000000161415610551576040516305a48e0f60e01b815260040160405180910390fd5b61055b8484610f66565b15610565576105df565b6001600160401b038416600081815260056020908152604080832080546001810182559084529282902090920180546001600160a01b0319166001600160a01b03881690811790915591519182527f752ead9f4536ec1319ee3a5a604e1d65eded22e0924251552ba14ae4faa1bbc3910160405180910390a25b50505050565b60005a6000848152600460205260409020549091506001600160401b03166106455760405162461bcd60e51b81526020600482015260136024820152721b9bdb995e1a5cdd195b9d081c995c5d595cdd606a1b6044820152606401610320565b6000838152600460209081526040808320815160608101835290546001600160401b03808216835263ffffffff600160401b8304811695840195909552600160601b90910490931691810182905292918111156106a4576106a461142d565b6040519080825280602002602001820160405280156106cd578160200160208202803683370190505b50905060005b826040015163ffffffff168110156107415760408051602081018890529081018290526060016040516020818303038152906040528051906020012060001c82828151811061072457610724611417565b602090810291909101015280610739816113a9565b9150506106d3565b50600080631fe543e360e01b8784604051602401610760929190611240565b604051602081830303815290604052906001600160e01b0319166020820180516001600160e01b03838183161783525050505090506000866001600160a01b0316856020015163ffffffff16836040516107ba91906111a6565b60006040518083038160008787f1925050503d80600081146107f8576040519150601f19603f3d011682016040523d82523d6000602084013e6107fd565b606091505b5050905060007f00000000000000000000000000000000000000000000000000000000000000006001600160601b03165a610838908961136a565b610842919061134b565b610875906001600160601b037f000000000000000000000000000000000000000000000000000000000000000016611308565b86516001600160401b03166000908152600360205260409020549091506001600160601b03808316600160a01b9092041610156108c557604051631e9acf1760e31b815260040160405180910390fd5b85516001600160401b031660009081526003602052604090208054829190601490610901908490600160a01b90046001600160601b0316611381565b82546101009290920a6001600160601b0381810219909316918316021790915560008b81526004602090815260409182902080546fffffffffffffffffffffffffffffffff1916905581518d815292851690830152841515908201528a91507f7dffc5ae5ee4e2e4df1651cf6ad329a73cebdb728f37ea0187b9b17e036756e49060600160405180910390a2505050505050505050565b6001600160401b03821660009081526003602052604090205482906001600160a01b0316806109da57604051630fb532db60e11b815260040160405180910390fd5b336001600160a01b03821614610a0e57604051636c51fda960e11b81526001600160a01b0382166004820152602401610320565b8383610a1a8282610f66565b610a37576040516371e8313760e01b815260040160405180910390fd5b6001600160401b0386166000908152600560205260408120905b8154811015610b5f57866001600160a01b0316828281548110610a7657610a76611417565b6000918252602090912001546001600160a01b03161415610b4d5781546000908390610aa49060019061136a565b81548110610ab457610ab4611417565b9060005260206000200160009054906101000a90046001600160a01b0316905080838381548110610ae757610ae7611417565b9060005260206000200160006101000a8154816001600160a01b0302191690836001600160a01b0316021790555082805480610b2557610b25611401565b600082815260209020810160001990810180546001600160a01b031916905501905550610b5f565b80610b57816113a9565b915050610a51565b506040516001600160a01b03871681526001600160401b038816907ff9bc9d5b5733d904409def43a5ecc888dbdac9a95687780d8fd489d3bb3813fc9060200160405180910390a250505050505050565b600080546001600160401b03168180610bc8836113c4565b82546001600160401b039182166101009390930a928302928202191691909117909155604080518082018252338082526000602080840182815282548716835260038252858320945190516001600160601b0316600160a01b026001600160a01b03909116179093555492519081529190921692507f464722b4166576d3dcbba877b999bc35cf911f4eaf434b7eba68fa113951d0bf910160405180910390a2506000546001600160401b031690565b6001600160401b038116600090815260036020526040812054819081906060906001600160a01b0316610cbe57604051630fb532db60e11b815260040160405180910390fd5b6001600160401b0385166000908152600360205260408120546001600160601b03600160a01b82041691906001600160a01b031681604051908082528060200260200182016040528015610d1c578160200160208202803683370190505b5093509350935093509193509193565b6001600160401b0382166000908152600360205260409020546001600160a01b0316610d6b57604051630fb532db60e11b815260040160405180910390fd5b6001600160401b03821660009081526003602052604090208054600160a01b90046001600160601b03169082906014610da48385611320565b92506101000a8154816001600160601b0302191690836001600160601b03160217905550826001600160401b03167fd39ec07f4e209f627a4c427971473820dc129761ba28de8906bd56f57101d4f8828484610e009190611320565b604080516001600160601b0393841681529290911660208301520160405180910390a2505050565b6001600160401b03821660009081526003602052604090205482906001600160a01b031680610e6a57604051630fb532db60e11b815260040160405180910390fd5b336001600160a01b03821614610e9e57604051636c51fda960e11b81526001600160a01b0382166004820152602401610320565b6001600160401b0384166000818152600360209081526040918290205482516001600160a01b0388168152600160a01b9091046001600160601b0316918101919091527fe8ed5b475a5b5987aa9165e8731bb78043f39eee32ec5a1169a89e27fcd49815910160405180910390a25050506001600160401b0316600090815260036020526040812055565b60405162461bcd60e51b815260206004820152600f60248201526e1b9bdd081a5b5c1b195b595b9d1959608a1b6044820152600090606401610320565b6001600160401b038216600090815260056020908152604080832080548251818502810185019093528083528493830182828015610fcd57602002820191906000526020600020905b81546001600160a01b03168152600190910190602001808311610faf575b5050505050905060005b815181101561103057836001600160a01b0316828281518110610ffc57610ffc611417565b60200260200101516001600160a01b0316141561101e57600192505050611037565b80611028816113a9565b915050610fd7565b5060009150505b92915050565b80356001600160a01b038116811461105457600080fd5b919050565b803563ffffffff8116811461105457600080fd5b80356001600160401b038116811461105457600080fd5b600080600080600060a0868803121561109c57600080fd5b853594506110ac6020870161106d565b9350604086013561ffff811681146110c357600080fd5b92506110d160608701611059565b91506110df60808701611059565b90509295509295909350565b600080604083850312156110fe57600080fd5b8235915061110e6020840161103d565b90509250929050565b60006020828403121561112957600080fd5b6111328261106d565b9392505050565b6000806040838503121561114c57600080fd5b6111558361106d565b915061110e6020840161103d565b6000806040838503121561117657600080fd5b61117f8361106d565b915060208301356001600160601b038116811461119b57600080fd5b809150509250929050565b6000825160005b818110156111c757602081860181015185830152016111ad565b818111156111d6576000828501525b509190910192915050565b60006060820161ffff86168352602063ffffffff86168185015260606040850152818551808452608086019150828701935060005b8181101561123257845183529383019391830191600101611216565b509098975050505050505050565b6000604082018483526020604081850152818551808452606086019150828701935060005b8181101561128157845183529383019391830191600101611265565b5090979650505050505050565b6000608082016001600160601b038716835260206001600160401b0387168185015260018060a01b0380871660408601526080606086015282865180855260a087019150838801945060005b818110156112f85785518416835294840194918401916001016112da565b50909a9950505050505050505050565b6000821982111561131b5761131b6113eb565b500190565b60006001600160601b03808316818516808303821115611342576113426113eb565b01949350505050565b6000816000190483118215151615611365576113656113eb565b500290565b60008282101561137c5761137c6113eb565b500390565b60006001600160601b03838116908316818110156113a1576113a16113eb565b039392505050565b60006000198214156113bd576113bd6113eb565b5060010190565b60006001600160401b03808316818114156113e1576113e16113eb565b6001019392505050565b634e487b7160e01b600052601160045260246000fd5b634e487b7160e01b600052603160045260246000fd5b634e487b7160e01b600052603260045260246000fd5b634e487b7160e01b600052604160045260246000fdfea2646970667358221220d0d7e2f1f3302687844fbcbda2831ed72e88a6402a1fc79f8fd58954f399d1ab64736f6c63430008070033",
    "sourcePath": "c:/Users/MILANO/documents/proj/solidity/smartcontract-lottery/contracts/test/VRFCoordinatorV2MixMock.sol",
    "compiler": {
        "name": "solc",
        "version": "0.8.7+commit.e28d00a7"
    },
    "functionHashes": {
        "BASE_FEE()": "3d18651e",
        "GAS_PRICE_LINK()": "a410347f",
        "MAX_CONSUMERS()": "64d51a2a",
        "acceptSubscriptionOwnerTransfer(uint64)": "82359740",
        "addConsumer(uint64,address)": "7341c10c",
        "cancelSubscription(uint64,address)": "d7ae1d30",
        "consumerIsAdded(uint64,address)": "ed5eb06d",
        "createSubscription()": "a21a23e4",
        "fulfillRandomWords(uint256,address)": "808974ff",
        "fundSubscription(uint64,uint96)": "afc69b53",
        "getRequestConfig()": "00012291",
        "getSubscription(uint64)": "a47c7696",
        "pendingRequestExists(uint64)": "e82ad7d4",
        "removeConsumer(uint64,address)": "9f87fad7",
        "requestRandomWords(bytes32,uint64,uint16,uint32,uint32)": "5d3b1d30",
        "requestSubscriptionOwnerTransfer(uint64,address)": "04c357cb"
    },
    "gasEstimates": {
        "creation": {
            "codeDepositCost": "1048200",
            "executionCost": "infinite",
            "totalCost": "infinite"
        },
        "external": {
            "BASE_FEE()": "infinite",
            "GAS_PRICE_LINK()": "infinite",
            "MAX_CONSUMERS()": "infinite",
            "acceptSubscriptionOwnerTransfer(uint64)": "494",
            "addConsumer(uint64,address)": "infinite",
            "cancelSubscription(uint64,address)": "infinite",
            "consumerIsAdded(uint64,address)": "infinite",
            "createSubscription()": "56870",
            "fulfillRandomWords(uint256,address)": "infinite",
            "fundSubscription(uint64,uint96)": "infinite",
            "getRequestConfig()": "427",
            "getSubscription(uint64)": "5303",
            "pendingRequestExists(uint64)": "488",
            "removeConsumer(uint64,address)": "infinite",
            "requestRandomWords(bytes32,uint64,uint16,uint32,uint32)": "infinite",
            "requestSubscriptionOwnerTransfer(uint64,address)": "infinite"
        }
    }
}